:1000970049204C4F564520594F55202100313331C7
:0B00A700343532302021205E5F5E0007
:0B006E00E50993FF1200C37F0A7E002B
:10007900D3EF9400EE940040147D727C00ED1D7066
:0D008900011CED4C70F7EF1F70E61E80E3C8
:010096002247
:1000D4007580FFC293D294C29500D295E5803322F5
:1000B2001200D440FBC293C294D2958F8000C295A5
:0100C200221B
:1000C3001200D440FBD293C294D2958F8000C29584
:0100D300220A
:10000300D2A6E4F580C2A6D2A7F580C2A77F381294
:1000130000B27F011200B27F0C1200B27F06120001
:10002300B27F801200B2120075E4F508F509900062
:100033009712006E0509E50970020508C3940CE5E3
:1000430008940040E97FC01200B2120075E4F5087D
:10005300F5099000A412006E0509E5097002050870
:0B006300C3940DE508940040E980FE06
:030000000200E417
:0C00E400787FE4F6D8FD75810902000366
:00000001FF
